{
  "_format": "hh-sol-artifact-1",
  "contractName": "MintellectNFT",
  "sourceName": "contracts/MintellectNFT.sol",
  "abi": [
    {
      "inputs": [],
      "stateMutability": "nonpayable",
      "type": "constructor"
    },
    {
      "inputs": [
        {
          "internalType": "address",
          "name": "sender",
          "type": "address"
        },
        {
          "internalType": "uint256",
          "name": "tokenId",
          "type": "uint256"
        },
        {
          "internalType": "address",
          "name": "owner",
          "type": "address"
        }
      ],
      "name": "ERC721IncorrectOwner",
      "type": "error"
    },
    {
      "inputs": [
        {
          "internalType": "address",
          "name": "operator",
          "type": "address"
        },
        {
          "internalType": "uint256",
          "name": "tokenId",
          "type": "uint256"
        }
      ],
      "name": "ERC721InsufficientApproval",
      "type": "error"
    },
    {
      "inputs": [
        {
          "internalType": "address",
          "name": "approver",
          "type": "address"
        }
      ],
      "name": "ERC721InvalidApprover",
      "type": "error"
    },
    {
      "inputs": [
        {
          "internalType": "address",
          "name": "operator",
          "type": "address"
        }
      ],
      "name": "ERC721InvalidOperator",
      "type": "error"
    },
    {
      "inputs": [
        {
          "internalType": "address",
          "name": "owner",
          "type": "address"
        }
      ],
      "name": "ERC721InvalidOwner",
      "type": "error"
    },
    {
      "inputs": [
        {
          "internalType": "address",
          "name": "receiver",
          "type": "address"
        }
      ],
      "name": "ERC721InvalidReceiver",
      "type": "error"
    },
    {
      "inputs": [
        {
          "internalType": "address",
          "name": "sender",
          "type": "address"
        }
      ],
      "name": "ERC721InvalidSender",
      "type": "error"
    },
    {
      "inputs": [
        {
          "internalType": "uint256",
          "name": "tokenId",
          "type": "uint256"
        }
      ],
      "name": "ERC721NonexistentToken",
      "type": "error"
    },
    {
      "inputs": [
        {
          "internalType": "address",
          "name": "owner",
          "type": "address"
        }
      ],
      "name": "OwnableInvalidOwner",
      "type": "error"
    },
    {
      "inputs": [
        {
          "internalType": "address",
          "name": "account",
          "type": "address"
        }
      ],
      "name": "OwnableUnauthorizedAccount",
      "type": "error"
    },
    {
      "inputs": [],
      "name": "ReentrancyGuardReentrantCall",
      "type": "error"
    },
    {
      "anonymous": false,
      "inputs": [
        {
          "indexed": true,
          "internalType": "address",
          "name": "owner",
          "type": "address"
        },
        {
          "indexed": true,
          "internalType": "address",
          "name": "approved",
          "type": "address"
        },
        {
          "indexed": true,
          "internalType": "uint256",
          "name": "tokenId",
          "type": "uint256"
        }
      ],
      "name": "Approval",
      "type": "event"
    },
    {
      "anonymous": false,
      "inputs": [
        {
          "indexed": true,
          "internalType": "address",
          "name": "owner",
          "type": "address"
        },
        {
          "indexed": true,
          "internalType": "address",
          "name": "operator",
          "type": "address"
        },
        {
          "indexed": false,
          "internalType": "bool",
          "name": "approved",
          "type": "bool"
        }
      ],
      "name": "ApprovalForAll",
      "type": "event"
    },
    {
      "anonymous": false,
      "inputs": [
        {
          "indexed": false,
          "internalType": "string",
          "name": "oldURI",
          "type": "string"
        },
        {
          "indexed": false,
          "internalType": "string",
          "name": "newURI",
          "type": "string"
        }
      ],
      "name": "BaseURIUpdated",
      "type": "event"
    },
    {
      "anonymous": false,
      "inputs": [
        {
          "indexed": false,
          "internalType": "uint256",
          "name": "_fromTokenId",
          "type": "uint256"
        },
        {
          "indexed": false,
          "internalType": "uint256",
          "name": "_toTokenId",
          "type": "uint256"
        }
      ],
      "name": "BatchMetadataUpdate",
      "type": "event"
    },
    {
      "anonymous": false,
      "inputs": [
        {
          "indexed": false,
          "internalType": "uint256",
          "name": "oldMax",
          "type": "uint256"
        },
        {
          "indexed": false,
          "internalType": "uint256",
          "name": "newMax",
          "type": "uint256"
        }
      ],
      "name": "MaxSupplyUpdated",
      "type": "event"
    },
    {
      "anonymous": false,
      "inputs": [
        {
          "indexed": false,
          "internalType": "uint256",
          "name": "oldMax",
          "type": "uint256"
        },
        {
          "indexed": false,
          "internalType": "uint256",
          "name": "newMax",
          "type": "uint256"
        }
      ],
      "name": "MaxTokensPerWalletUpdated",
      "type": "event"
    },
    {
      "anonymous": false,
      "inputs": [
        {
          "indexed": false,
          "internalType": "uint256",
          "name": "_tokenId",
          "type": "uint256"
        }
      ],
      "name": "MetadataUpdate",
      "type": "event"
    },
    {
      "anonymous": false,
      "inputs": [
        {
          "indexed": false,
          "internalType": "uint256",
          "name": "oldPrice",
          "type": "uint256"
        },
        {
          "indexed": false,
          "internalType": "uint256",
          "name": "newPrice",
          "type": "uint256"
        }
      ],
      "name": "MintPriceUpdated",
      "type": "event"
    },
    {
      "anonymous": false,
      "inputs": [
        {
          "indexed": true,
          "internalType": "address",
          "name": "to",
          "type": "address"
        },
        {
          "indexed": true,
          "internalType": "uint256",
          "name": "tokenId",
          "type": "uint256"
        },
        {
          "indexed": false,
          "internalType": "string",
          "name": "tokenURI",
          "type": "string"
        }
      ],
      "name": "NFTMinted",
      "type": "event"
    },
    {
      "anonymous": false,
      "inputs": [
        {
          "indexed": true,
          "internalType": "address",
          "name": "previousOwner",
          "type": "address"
        },
        {
          "indexed": true,
          "internalType": "address",
          "name": "newOwner",
          "type": "address"
        }
      ],
      "name": "OwnershipTransferred",
      "type": "event"
    },
    {
      "anonymous": false,
      "inputs": [
        {
          "indexed": false,
          "internalType": "bool",
          "name": "enabled",
          "type": "bool"
        }
      ],
      "name": "PublicMintingToggled",
      "type": "event"
    },
    {
      "anonymous": false,
      "inputs": [
        {
          "indexed": true,
          "internalType": "address",
          "name": "to",
          "type": "address"
        },
        {
          "indexed": true,
          "internalType": "uint256",
          "name": "tokenId",
          "type": "uint256"
        },
        {
          "indexed": false,
          "internalType": "string",
          "name": "tokenURI",
          "type": "string"
        },
        {
          "indexed": false,
          "internalType": "uint256",
          "name": "price",
          "type": "uint256"
        }
      ],
      "name": "PublicNFTMinted",
      "type": "event"
    },
    {
      "anonymous": false,
      "inputs": [
        {
          "indexed": true,
          "internalType": "address",
          "name": "from",
          "type": "address"
        },
        {
          "indexed": true,
          "internalType": "address",
          "name": "to",
          "type": "address"
        },
        {
          "indexed": true,
          "internalType": "uint256",
          "name": "tokenId",
          "type": "uint256"
        }
      ],
      "name": "Transfer",
      "type": "event"
    },
    {
      "inputs": [
        {
          "internalType": "address",
          "name": "to",
          "type": "address"
        },
        {
          "internalType": "uint256",
          "name": "tokenId",
          "type": "uint256"
        }
      ],
      "name": "approve",
      "outputs": [],
      "stateMutability": "nonpayable",
      "type": "function"
    },
    {
      "inputs": [
        {
          "internalType": "address",
          "name": "owner",
          "type": "address"
        }
      ],
      "name": "balanceOf",
      "outputs": [
        {
          "internalType": "uint256",
          "name": "",
          "type": "uint256"
        }
      ],
      "stateMutability": "view",
      "type": "function"
    },
    {
      "inputs": [
        {
          "internalType": "address",
          "name": "to",
          "type": "address"
        },
        {
          "internalType": "string[]",
          "name": "tokenURIs",
          "type": "string[]"
        }
      ],
      "name": "batchMintNFT",
      "outputs": [
        {
          "internalType": "uint256",
          "name": "startTokenId",
          "type": "uint256"
        }
      ],
      "stateMutability": "nonpayable",
      "type": "function"
    },
    {
      "inputs": [
        {
          "internalType": "string[]",
          "name": "tokenURIs",
          "type": "string[]"
        }
      ],
      "name": "batchMintPublic",
      "outputs": [
        {
          "internalType": "uint256",
          "name": "startTokenId",
          "type": "uint256"
        }
      ],
      "stateMutability": "payable",
      "type": "function"
    },
    {
      "inputs": [
        {
          "internalType": "address",
          "name": "tokenAddress",
          "type": "address"
        },
        {
          "internalType": "address",
          "name": "to",
          "type": "address"
        },
        {
          "internalType": "uint256",
          "name": "amount",
          "type": "uint256"
        }
      ],
      "name": "emergencyRecoverERC20",
      "outputs": [],
      "stateMutability": "nonpayable",
      "type": "function"
    },
    {
      "inputs": [
        {
          "internalType": "address",
          "name": "to",
          "type": "address"
        }
      ],
      "name": "emergencyRecoverETH",
      "outputs": [],
      "stateMutability": "nonpayable",
      "type": "function"
    },
    {
      "inputs": [
        {
          "internalType": "uint256",
          "name": "tokenId",
          "type": "uint256"
        }
      ],
      "name": "getApproved",
      "outputs": [
        {
          "internalType": "address",
          "name": "",
          "type": "address"
        }
      ],
      "stateMutability": "view",
      "type": "function"
    },
    {
      "inputs": [],
      "name": "getBaseURI",
      "outputs": [
        {
          "internalType": "string",
          "name": "",
          "type": "string"
        }
      ],
      "stateMutability": "view",
      "type": "function"
    },
    {
      "inputs": [],
      "name": "getMintingConfig",
      "outputs": [
        {
          "internalType": "uint256",
          "name": "price",
          "type": "uint256"
        },
        {
          "internalType": "bool",
          "name": "enabled",
          "type": "bool"
        },
        {
          "internalType": "uint256",
          "name": "maxSupply",
          "type": "uint256"
        },
        {
          "internalType": "uint256",
          "name": "maxPerWallet",
          "type": "uint256"
        },
        {
          "internalType": "uint256",
          "name": "currentSupply",
          "type": "uint256"
        }
      ],
      "stateMutability": "view",
      "type": "function"
    },
    {
      "inputs": [],
      "name": "getNextTokenId",
      "outputs": [
        {
          "internalType": "uint256",
          "name": "",
          "type": "uint256"
        }
      ],
      "stateMutability": "view",
      "type": "function"
    },
    {
      "inputs": [
        {
          "internalType": "address",
          "name": "wallet",
          "type": "address"
        }
      ],
      "name": "getWalletMintStats",
      "outputs": [
        {
          "internalType": "uint256",
          "name": "minted",
          "type": "uint256"
        },
        {
          "internalType": "uint256",
          "name": "remaining",
          "type": "uint256"
        }
      ],
      "stateMutability": "view",
      "type": "function"
    },
    {
      "inputs": [
        {
          "internalType": "address",
          "name": "owner",
          "type": "address"
        },
        {
          "internalType": "address",
          "name": "operator",
          "type": "address"
        }
      ],
      "name": "isApprovedForAll",
      "outputs": [
        {
          "internalType": "bool",
          "name": "",
          "type": "bool"
        }
      ],
      "stateMutability": "view",
      "type": "function"
    },
    {
      "inputs": [],
      "name": "maxTokensPerWallet",
      "outputs": [
        {
          "internalType": "uint256",
          "name": "",
          "type": "uint256"
        }
      ],
      "stateMutability": "view",
      "type": "function"
    },
    {
      "inputs": [],
      "name": "maxTotalSupply",
      "outputs": [
        {
          "internalType": "uint256",
          "name": "",
          "type": "uint256"
        }
      ],
      "stateMutability": "view",
      "type": "function"
    },
    {
      "inputs": [
        {
          "internalType": "address",
          "name": "to",
          "type": "address"
        },
        {
          "internalType": "string",
          "name": "tokenURI",
          "type": "string"
        }
      ],
      "name": "mintNFT",
      "outputs": [
        {
          "internalType": "uint256",
          "name": "",
          "type": "uint256"
        }
      ],
      "stateMutability": "nonpayable",
      "type": "function"
    },
    {
      "inputs": [],
      "name": "mintPrice",
      "outputs": [
        {
          "internalType": "uint256",
          "name": "",
          "type": "uint256"
        }
      ],
      "stateMutability": "view",
      "type": "function"
    },
    {
      "inputs": [
        {
          "internalType": "string",
          "name": "tokenURI",
          "type": "string"
        }
      ],
      "name": "mintPublic",
      "outputs": [
        {
          "internalType": "uint256",
          "name": "",
          "type": "uint256"
        }
      ],
      "stateMutability": "payable",
      "type": "function"
    },
    {
      "inputs": [],
      "name": "name",
      "outputs": [
        {
          "internalType": "string",
          "name": "",
          "type": "string"
        }
      ],
      "stateMutability": "view",
      "type": "function"
    },
    {
      "inputs": [],
      "name": "owner",
      "outputs": [
        {
          "internalType": "address",
          "name": "",
          "type": "address"
        }
      ],
      "stateMutability": "view",
      "type": "function"
    },
    {
      "inputs": [
        {
          "internalType": "uint256",
          "name": "tokenId",
          "type": "uint256"
        }
      ],
      "name": "ownerOf",
      "outputs": [
        {
          "internalType": "address",
          "name": "",
          "type": "address"
        }
      ],
      "stateMutability": "view",
      "type": "function"
    },
    {
      "inputs": [],
      "name": "publicMintingEnabled",
      "outputs": [
        {
          "internalType": "bool",
          "name": "",
          "type": "bool"
        }
      ],
      "stateMutability": "view",
      "type": "function"
    },
    {
      "inputs": [],
      "name": "renounceOwnership",
      "outputs": [],
      "stateMutability": "nonpayable",
      "type": "function"
    },
    {
      "inputs": [
        {
          "internalType": "address",
          "name": "from",
          "type": "address"
        },
        {
          "internalType": "address",
          "name": "to",
          "type": "address"
        },
        {
          "internalType": "uint256",
          "name": "tokenId",
          "type": "uint256"
        }
      ],
      "name": "safeTransferFrom",
      "outputs": [],
      "stateMutability": "nonpayable",
      "type": "function"
    },
    {
      "inputs": [
        {
          "internalType": "address",
          "name": "from",
          "type": "address"
        },
        {
          "internalType": "address",
          "name": "to",
          "type": "address"
        },
        {
          "internalType": "uint256",
          "name": "tokenId",
          "type": "uint256"
        },
        {
          "internalType": "bytes",
          "name": "data",
          "type": "bytes"
        }
      ],
      "name": "safeTransferFrom",
      "outputs": [],
      "stateMutability": "nonpayable",
      "type": "function"
    },
    {
      "inputs": [
        {
          "internalType": "address",
          "name": "operator",
          "type": "address"
        },
        {
          "internalType": "bool",
          "name": "approved",
          "type": "bool"
        }
      ],
      "name": "setApprovalForAll",
      "outputs": [],
      "stateMutability": "nonpayable",
      "type": "function"
    },
    {
      "inputs": [
        {
          "internalType": "string",
          "name": "baseURI",
          "type": "string"
        }
      ],
      "name": "setBaseURI",
      "outputs": [],
      "stateMutability": "nonpayable",
      "type": "function"
    },
    {
      "inputs": [
        {
          "internalType": "uint256",
          "name": "newMaxPerWallet",
          "type": "uint256"
        }
      ],
      "name": "setMaxTokensPerWallet",
      "outputs": [],
      "stateMutability": "nonpayable",
      "type": "function"
    },
    {
      "inputs": [
        {
          "internalType": "uint256",
          "name": "newMaxSupply",
          "type": "uint256"
        }
      ],
      "name": "setMaxTotalSupply",
      "outputs": [],
      "stateMutability": "nonpayable",
      "type": "function"
    },
    {
      "inputs": [
        {
          "internalType": "uint256",
          "name": "newPrice",
          "type": "uint256"
        }
      ],
      "name": "setMintPrice",
      "outputs": [],
      "stateMutability": "nonpayable",
      "type": "function"
    },
    {
      "inputs": [
        {
          "internalType": "bool",
          "name": "enabled",
          "type": "bool"
        }
      ],
      "name": "setPublicMintingEnabled",
      "outputs": [],
      "stateMutability": "nonpayable",
      "type": "function"
    },
    {
      "inputs": [
        {
          "internalType": "bytes4",
          "name": "interfaceId",
          "type": "bytes4"
        }
      ],
      "name": "supportsInterface",
      "outputs": [
        {
          "internalType": "bool",
          "name": "",
          "type": "bool"
        }
      ],
      "stateMutability": "view",
      "type": "function"
    },
    {
      "inputs": [],
      "name": "symbol",
      "outputs": [
        {
          "internalType": "string",
          "name": "",
          "type": "string"
        }
      ],
      "stateMutability": "view",
      "type": "function"
    },
    {
      "inputs": [
        {
          "internalType": "uint256",
          "name": "tokenId",
          "type": "uint256"
        }
      ],
      "name": "tokenURI",
      "outputs": [
        {
          "internalType": "string",
          "name": "",
          "type": "string"
        }
      ],
      "stateMutability": "view",
      "type": "function"
    },
    {
      "inputs": [],
      "name": "totalSupply",
      "outputs": [
        {
          "internalType": "uint256",
          "name": "",
          "type": "uint256"
        }
      ],
      "stateMutability": "view",
      "type": "function"
    },
    {
      "inputs": [
        {
          "internalType": "address",
          "name": "from",
          "type": "address"
        },
        {
          "internalType": "address",
          "name": "to",
          "type": "address"
        },
        {
          "internalType": "uint256",
          "name": "tokenId",
          "type": "uint256"
        }
      ],
      "name": "transferFrom",
      "outputs": [],
      "stateMutability": "nonpayable",
      "type": "function"
    },
    {
      "inputs": [
        {
          "internalType": "address",
          "name": "newOwner",
          "type": "address"
        }
      ],
      "name": "transferOwnership",
      "outputs": [],
      "stateMutability": "nonpayable",
      "type": "function"
    },
    {
      "inputs": [
        {
          "internalType": "address",
          "name": "",
          "type": "address"
        }
      ],
      "name": "walletMintCount",
      "outputs": [
        {
          "internalType": "uint256",
          "name": "",
          "type": "uint256"
        }
      ],
      "stateMutability": "view",
      "type": "function"
    },
    {
      "inputs": [],
      "name": "withdraw",
      "outputs": [],
      "stateMutability": "nonpayable",
      "type": "function"
    }
  ],
  "bytecode": "0x60806040526000600955662386f26fc10000600b556001600c60006101000a81548160ff021916908315150217905550600a600d55612710600e5534801561004657600080fd5b50336040518060400160405280600d81526020017f4d696e74656c6c6563744e4654000000000000000000000000000000000000008152506040518060400160405280600481526020017f4d494e540000000000000000000000000000000000000000000000000000000081525081600090816100c3919061049a565b5080600190816100d3919061049a565b505050600073ffffffffffffffffffffffffffffffffffffffff168173ffffffffffffffffffffffffffffffffffffffff16036101485760006040517f1e4fbdf700000000000000000000000000000000000000000000000000000000815260040161013f91906105ad565b60405180910390fd5b6101578161018460201b60201c565b50600160088190555060405180602001604052806000815250600a908161017e919061049a565b506105c8565b6000600760009054906101000a900473ffffffffffffffffffffffffffffffffffffffff16905081600760006101000a81548173ffffffffffffffffffffffffffffffffffffffff021916908373ffffffffffffffffffffffffffffffffffffffff1602179055508173ffffffffffffffffffffffffffffffffffffffff168173ffffffffffffffffffffffffffffffffffffffff167f8be0079c531659141344cd1fd0a4f28419497f9722a3daafe3b4186f6b6457e060405160405180910390a35050565b600081519050919050565b7f4e487b7100000000000000000000000000000000000000000000000000000000600052604160045260246000fd5b7f4e487b7100000000000000000000000000000000000000000000000000000000600052602260045260246000fd5b600060028204905060018216806102cb57607f821691505b6020821081036102de576102dd610284565b5b50919050565b60008190508160005260206000209050919050565b60006020601f8301049050919050565b600082821b905092915050565b6000600883026103467fffffffffffffffffffffffffffffffffffffffffffffffffffffffffffffffff82610309565b6103508683610309565b95508019841693508086168417925050509392505050565b6000819050919050565b6000819050919050565b600061039761039261038d84610368565b610372565b610368565b9050919050565b6000819050919050565b6103b18361037c565b6103c56103bd8261039e565b848454610316565b825550505050565b600090565b6103da6103cd565b6103e58184846103a8565b505050565b5b81811015610409576103fe6000826103d2565b6001810190506103eb565b5050565b601f82111561044e5761041f816102e4565b610428846102f9565b81016020851015610437578190505b61044b610443856102f9565b8301826103ea565b50505b505050565b600082821c905092915050565b600061047160001984600802610453565b1980831691505092915050565b600061048a8383610460565b9150826002028217905092915050565b6104a38261024a565b67ffffffffffffffff8111156104bc576104bb610255565b5b6104c682546102b3565b6104d182828561040d565b600060209050601f83116001811461050457600084156104f2578287015190505b6104fc858261047e565b865550610564565b601f198416610512866102e4565b60005b8281101561053a57848901518255600182019150602085019450602081019050610515565b868310156105575784890151610553601f891682610460565b8355505b6001600288020188555050505b505050505050565b600073ffffffffffffffffffffffffffffffffffffffff82169050919050565b60006105978261056c565b9050919050565b6105a78161058c565b82525050565b60006020820190506105c2600083018461059e565b92915050565b614daa806105d76000396000f3fe6080604052600436106102255760003560e01c80638dec9f7a11610123578063caa0f92a116100ab578063e985e9c51161006f578063e985e9c514610818578063eacabe1414610855578063eb8f4c4a14610892578063f2fde38b146108bb578063f4a0a528146108e457610225565b8063caa0f92a14610727578063d376fab614610752578063d64262e714610782578063dd2e2303146107ab578063e53cf7f8146107e857610225565b806396ed73a7116100f257806396ed73a714610640578063a22cb4651461066f578063aac5d69f14610698578063b88d4fde146106c1578063c87b56dd146106ea57610225565b80638dec9f7a1461056f578063908931aa1461059a57806393ecb0c6146105d857806395d89b411461061557610225565b80633f3e4c11116101b15780636817c76c116101755780636817c76c1461049a57806370a08231146104c5578063714c539814610502578063715018a61461052d5780638da5cb5b1461054457610225565b80633f3e4c11146103b757806342842e0e146103e0578063469132ce1461040957806355f804b3146104345780636352211e1461045d57610225565b806318160ddd116101f857806318160ddd146102f85780631835dbe61461032357806323b872dd1461034c5780632ab4d052146103755780633ccfd60b146103a057610225565b806301ffc9a71461022a57806306fdde0314610267578063081812fc14610292578063095ea7b3146102cf575b600080fd5b34801561023657600080fd5b50610251600480360381019061024c91906134af565b61090d565b60405161025e91906134f7565b60405180910390f35b34801561027357600080fd5b5061027c61096e565b60405161028991906135a2565b60405180910390f35b34801561029e57600080fd5b506102b960048036038101906102b491906135fa565b610a00565b6040516102c69190613668565b60405180910390f35b3480156102db57600080fd5b506102f660048036038101906102f191906136af565b610a1c565b005b34801561030457600080fd5b5061030d610a32565b60405161031a91906136fe565b60405180910390f35b34801561032f57600080fd5b5061034a60048036038101906103459190613745565b610a3c565b005b34801561035857600080fd5b50610373600480360381019061036e9190613772565b610a98565b005b34801561038157600080fd5b5061038a610b9a565b60405161039791906136fe565b60405180910390f35b3480156103ac57600080fd5b506103b5610ba0565b005b3480156103c357600080fd5b506103de60048036038101906103d991906135fa565b610ca7565b005b3480156103ec57600080fd5b5061040760048036038101906104029190613772565b610d3f565b005b34801561041557600080fd5b5061041e610d5f565b60405161042b91906136fe565b60405180910390f35b34801561044057600080fd5b5061045b600480360381019061045691906138fa565b610d65565b005b34801561046957600080fd5b50610484600480360381019061047f91906135fa565b610e49565b6040516104919190613668565b60405180910390f35b3480156104a657600080fd5b506104af610e5b565b6040516104bc91906136fe565b60405180910390f35b3480156104d157600080fd5b506104ec60048036038101906104e79190613943565b610e61565b6040516104f991906136fe565b60405180910390f35b34801561050e57600080fd5b50610517610f1b565b60405161052491906135a2565b60405180910390f35b34801561053957600080fd5b50610542610fad565b005b34801561055057600080fd5b50610559610fc1565b6040516105669190613668565b60405180910390f35b34801561057b57600080fd5b50610584610feb565b60405161059191906134f7565b60405180910390f35b3480156105a657600080fd5b506105c160048036038101906105bc9190613943565b610ffe565b6040516105cf929190613970565b60405180910390f35b3480156105e457600080fd5b506105ff60048036038101906105fa9190613943565b611069565b60405161060c91906136fe565b60405180910390f35b34801561062157600080fd5b5061062a611081565b60405161063791906135a2565b60405180910390f35b34801561064c57600080fd5b50610655611113565b604051610666959493929190613999565b60405180910390f35b34801561067b57600080fd5b50610696600480360381019061069191906139ec565b611148565b005b3480156106a457600080fd5b506106bf60048036038101906106ba91906135fa565b61115e565b005b3480156106cd57600080fd5b506106e860048036038101906106e39190613acd565b6111f4565b005b3480156106f657600080fd5b50610711600480360381019061070c91906135fa565b611219565b60405161071e91906135a2565b60405180910390f35b34801561073357600080fd5b5061073c61132c565b60405161074991906136fe565b60405180910390f35b61076c600480360381019061076791906138fa565b611342565b60405161077991906136fe565b60405180910390f35b34801561078e57600080fd5b506107a960048036038101906107a49190613943565b6115d7565b005b3480156107b757600080fd5b506107d260048036038101906107cd9190613c36565b611747565b6040516107df91906136fe565b60405180910390f35b61080260048036038101906107fd9190613c92565b6119e2565b60405161080f91906136fe565b60405180910390f35b34801561082457600080fd5b5061083f600480360381019061083a9190613cdb565b611da0565b60405161084c91906134f7565b60405180910390f35b34801561086157600080fd5b5061087c60048036038101906108779190613d1b565b611e34565b60405161088991906136fe565b60405180910390f35b34801561089e57600080fd5b506108b960048036038101906108b49190613772565b611fc3565b005b3480156108c757600080fd5b506108e260048036038101906108dd9190613943565b6121eb565b005b3480156108f057600080fd5b5061090b600480360381019061090691906135fa565b612271565b005b6000634906490660e01b7bffffffffffffffffffffffffffffffffffffffffffffffffffffffff1916827bffffffffffffffffffffffffffffffffffffffffffffffffffffffff19161480610967575061096682612307565b5b9050919050565b60606000805461097d90613da6565b80601f01602080910402602001604051908101604052809291908181526020018280546109a990613da6565b80156109f65780601f106109cb576101008083540402835291602001916109f6565b820191906000526020600020905b8154815290600101906020018083116109d957829003601f168201915b5050505050905090565b6000610a0b826123e9565b50610a1582612471565b9050919050565b610a2e8282610a296124ae565b6124b6565b5050565b6000600954905090565b610a446124c8565b80600c60006101000a81548160ff0219169083151502179055507fc977af333cf8813c2d0975c679d4face4e304c8f859030b4379c4b21c84963a281604051610a8d91906134f7565b60405180910390a150565b600073ffffffffffffffffffffffffffffffffffffffff168273ffffffffffffffffffffffffffffffffffffffff1603610b0a5760006040517f64a0ae92000000000000000000000000000000000000000000000000000000008152600401610b019190613668565b60405180910390fd5b6000610b1e8383610b196124ae565b61254f565b90508373ffffffffffffffffffffffffffffffffffffffff168173ffffffffffffffffffffffffffffffffffffffff1614610b94578382826040517f64283d7b000000000000000000000000000000000000000000000000000000008152600401610b8b93929190613dd7565b60405180910390fd5b50505050565b600e5481565b610ba86124c8565b600047905060008111610bf0576040517f08c379a0000000000000000000000000000000000000000000000000000000008152600401610be790613e5a565b60405180910390fd5b6000610bfa610fc1565b73ffffffffffffffffffffffffffffffffffffffff1682604051610c1d90613eab565b60006040518083038185875af1925050503d8060008114610c5a576040519150601f19603f3d011682016040523d82523d6000602084013e610c5f565b606091505b5050905080610ca3576040517f08c379a0000000000000000000000000000000000000000000000000000000008152600401610c9a90613f0c565b60405180910390fd5b5050565b610caf6124c8565b600954811015610cf4576040517f08c379a0000000000000000000000000000000000000000000000000000000008152600401610ceb90613f9e565b60405180910390fd5b6000600e54905081600e819055507f44ecfc706d63e347851cfd40acfa6cf2e3a41faa3e8b460210c03938e84a91ad8183604051610d33929190613970565b60405180910390a15050565b610d5a838383604051806020016040528060008152506111f4565b505050565b600d5481565b610d6d6124c8565b6000600a8054610d7c90613da6565b80601f0160208091040260200160405190810160405280929190818152602001828054610da890613da6565b8015610df55780601f10610dca57610100808354040283529160200191610df5565b820191906000526020600020905b815481529060010190602001808311610dd857829003601f168201915b5050505050905081600a9081610e0b919061416a565b507f309b29ded109b9e28fb9885757b3e0096eb75c51d23aa4635d68bcd569f6adc18183604051610e3d92919061423c565b60405180910390a15050565b6000610e54826123e9565b9050919050565b600b5481565b60008073ffffffffffffffffffffffffffffffffffffffff168273ffffffffffffffffffffffffffffffffffffffff1603610ed45760006040517f89c62b64000000000000000000000000000000000000000000000000000000008152600401610ecb9190613668565b60405180910390fd5b600360008373ffffffffffffffffffffffffffffffffffffffff1673ffffffffffffffffffffffffffffffffffffffff168152602001908152602001600020549050919050565b6060600a8054610f2a90613da6565b80601f0160208091040260200160405190810160405280929190818152602001828054610f5690613da6565b8015610fa35780601f10610f7857610100808354040283529160200191610fa3565b820191906000526020600020905b815481529060010190602001808311610f8657829003601f168201915b5050505050905090565b610fb56124c8565b610fbf6000612769565b565b6000600760009054906101000a900473ffffffffffffffffffffffffffffffffffffffff16905090565b600c60009054906101000a900460ff1681565b600080600f60008473ffffffffffffffffffffffffffffffffffffffff1673ffffffffffffffffffffffffffffffffffffffff16815260200190815260200160002054915081600d5411611053576000611062565b81600d5461106191906142a2565b5b9050915091565b600f6020528060005260406000206000915090505481565b60606001805461109090613da6565b80601f01602080910402602001604051908101604052809291908181526020018280546110bc90613da6565b80156111095780601f106110de57610100808354040283529160200191611109565b820191906000526020600020905b8154815290600101906020018083116110ec57829003601f168201915b5050505050905090565b6000806000806000600b54600c60009054906101000a900460ff16600e54600d54600954945094509450945094509091929394565b61115a6111536124ae565b838361282f565b5050565b6111666124c8565b600081116111a9576040517f08c379a00000000000000000000000000000000000000000000000000000000081526004016111a090614348565b60405180910390fd5b6000600d54905081600d819055507f172d6a44a328f77eac988586802ee23fbdffc67b31171cf164796c3414a517a781836040516111e8929190613970565b60405180910390a15050565b6111ff848484610a98565b61121361120a6124ae565b8585858561299e565b50505050565b6060611224826123e9565b50600060066000848152602001908152602001600020805461124590613da6565b80601f016020809104026020016040519081016040528092919081815260200182805461127190613da6565b80156112be5780601f10611293576101008083540402835291602001916112be565b820191906000526020600020905b8154815290600101906020018083116112a157829003601f168201915b5050505050905060006112cf612b4f565b905060008151036112e4578192505050611327565b6000825111156113195780826040516020016113019291906143a4565b60405160208183030381529060405292505050611327565b61132284612be1565b925050505b919050565b6000600160095461133d91906143c8565b905090565b600061134c612c4a565b600c60009054906101000a900460ff1661139b576040517f08c379a000000000000000000000000000000000000000000000000000000000815260040161139290614448565b60405180910390fd5b600b543410156113e0576040517f08c379a00000000000000000000000000000000000000000000000000000000081526004016113d7906144b4565b60405180910390fd5b6000825111611424576040517f08c379a000000000000000000000000000000000000000000000000000000000815260040161141b90614520565b60405180910390fd5b600e546009541061146a576040517f08c379a00000000000000000000000000000000000000000000000000000000081526004016114619061458c565b60405180910390fd5b600d54600f60003373ffffffffffffffffffffffffffffffffffffffff1673ffffffffffffffffffffffffffffffffffffffff16815260200190815260200160002054106114ed576040517f08c379a00000000000000000000000000000000000000000000000000000000081526004016114e4906145f8565b60405180910390fd5b6009600081548092919061150090614618565b919050555060006009549050600f60003373ffffffffffffffffffffffffffffffffffffffff1673ffffffffffffffffffffffffffffffffffffffff168152602001908152602001600020600081548092919061155c90614618565b919050555061156b3382612c90565b6115758184612cae565b803373ffffffffffffffffffffffffffffffffffffffff167f89f2f47766337f6f9f57a66a4d0713a5e8632b7a1704c5897e29da2e53d8798685346040516115be929190614660565b60405180910390a3809150506115d2612d0a565b919050565b6115df6124c8565b600073ffffffffffffffffffffffffffffffffffffffff168173ffffffffffffffffffffffffffffffffffffffff160361164e576040517f08c379a0000000000000000000000000000000000000000000000000000000008152600401611645906146dc565b60405180910390fd5b600047905060008111611696576040517f08c379a000000000000000000000000000000000000000000000000000000000815260040161168d90614748565b60405180910390fd5b60008273ffffffffffffffffffffffffffffffffffffffff16826040516116bc90613eab565b60006040518083038185875af1925050503d80600081146116f9576040519150601f19603f3d011682016040523d82523d6000602084013e6116fe565b606091505b5050905080611742576040517f08c379a0000000000000000000000000000000000000000000000000000000008152600401611739906147b4565b60405180910390fd5b505050565b60006117516124c8565b600073ffffffffffffffffffffffffffffffffffffffff168373ffffffffffffffffffffffffffffffffffffffff16036117c0576040517f08c379a00000000000000000000000000000000000000000000000000000000081526004016117b7906146dc565b60405180910390fd5b6000825111611804576040517f08c379a00000000000000000000000000000000000000000000000000000000081526004016117fb90614820565b60405180910390fd5b606482511115611849576040517f08c379a00000000000000000000000000000000000000000000000000000000081526004016118409061488c565b60405180910390fd5b600e54825160095461185b91906143c8565b111561189c576040517f08c379a0000000000000000000000000000000000000000000000000000000008152600401611893906148f8565b60405180910390fd5b60016009546118ab91906143c8565b905060005b82518110156119db5760008382815181106118ce576118cd614918565b5b60200260200101515111611917576040517f08c379a000000000000000000000000000000000000000000000000000000000815260040161190e90614520565b60405180910390fd5b6009600081548092919061192a90614618565b9190505550600060095490506119408582612c90565b6119648185848151811061195757611956614918565b5b6020026020010151612cae565b808573ffffffffffffffffffffffffffffffffffffffff167fd35bb95e09c04b219e35047ce7b7b300e3384264ef84a40456943dbc0fc17c148685815181106119b0576119af614918565b5b60200260200101516040516119c591906135a2565b60405180910390a35080806001019150506118b0565b5092915050565b60006119ec612c4a565b600c60009054906101000a900460ff16611a3b576040517f08c379a0000000000000000000000000000000000000000000000000000000008152600401611a3290614448565b60405180910390fd5b6000825111611a7f576040517f08c379a0000000000000000000000000000000000000000000000000000000008152600401611a7690614820565b60405180910390fd5b600582511115611ac4576040517f08c379a0000000000000000000000000000000000000000000000000000000008152600401611abb90614993565b60405180910390fd5b8151600b54611ad391906149b3565b341015611b15576040517f08c379a0000000000000000000000000000000000000000000000000000000008152600401611b0c906144b4565b60405180910390fd5b600e548251600954611b2791906143c8565b1115611b68576040517f08c379a0000000000000000000000000000000000000000000000000000000008152600401611b5f906148f8565b60405180910390fd5b600d548251600f60003373ffffffffffffffffffffffffffffffffffffffff1673ffffffffffffffffffffffffffffffffffffffff16815260200190815260200160002054611bb791906143c8565b1115611bf8576040517f08c379a0000000000000000000000000000000000000000000000000000000008152600401611bef90614a67565b60405180910390fd5b6001600954611c0791906143c8565b905060005b8251811015611d3b576000838281518110611c2a57611c29614918565b5b60200260200101515111611c73576040517f08c379a0000000000000000000000000000000000000000000000000000000008152600401611c6a90614520565b60405180910390fd5b60096000815480929190611c8690614618565b919050555060006009549050611c9c3382612c90565b611cc081858481518110611cb357611cb2614918565b5b6020026020010151612cae565b803373ffffffffffffffffffffffffffffffffffffffff167f89f2f47766337f6f9f57a66a4d0713a5e8632b7a1704c5897e29da2e53d87986868581518110611d0c57611d0b614918565b5b6020026020010151600b54604051611d25929190614660565b60405180910390a3508080600101915050611c0c565b508151600f60003373ffffffffffffffffffffffffffffffffffffffff1673ffffffffffffffffffffffffffffffffffffffff1681526020019081526020016000206000828254611d8c91906143c8565b92505081905550611d9b612d0a565b919050565b6000600560008473ffffffffffffffffffffffffffffffffffffffff1673ffffffffffffffffffffffffffffffffffffffff16815260200190815260200160002060008373ffffffffffffffffffffffffffffffffffffffff1673ffffffffffffffffffffffffffffffffffffffff16815260200190815260200160002060009054906101000a900460ff16905092915050565b6000611e3e6124c8565b600073ffffffffffffffffffffffffffffffffffffffff168373ffffffffffffffffffffffffffffffffffffffff1603611ead576040517f08c379a0000000000000000000000000000000000000000000000000000000008152600401611ea4906146dc565b60405180910390fd5b6000825111611ef1576040517f08c379a0000000000000000000000000000000000000000000000000000000008152600401611ee890614520565b60405180910390fd5b600e5460095410611f37576040517f08c379a0000000000000000000000000000000000000000000000000000000008152600401611f2e9061458c565b60405180910390fd5b60096000815480929190611f4a90614618565b919050555060006009549050611f608482612c90565b611f6a8184612cae565b808473ffffffffffffffffffffffffffffffffffffffff167fd35bb95e09c04b219e35047ce7b7b300e3384264ef84a40456943dbc0fc17c1485604051611fb191906135a2565b60405180910390a38091505092915050565b611fcb6124c8565b600073ffffffffffffffffffffffffffffffffffffffff168273ffffffffffffffffffffffffffffffffffffffff160361203a576040517f08c379a0000000000000000000000000000000000000000000000000000000008152600401612031906146dc565b60405180910390fd5b600073ffffffffffffffffffffffffffffffffffffffff168373ffffffffffffffffffffffffffffffffffffffff16036120a9576040517f08c379a00000000000000000000000000000000000000000000000000000000081526004016120a090614ad3565b60405180910390fd5b60008373ffffffffffffffffffffffffffffffffffffffff1683836040516024016120d5929190614af3565b6040516020818303038152906040527fa9059cbb000000000000000000000000000000000000000000000000000000007bffffffffffffffffffffffffffffffffffffffffffffffffffffffff19166020820180517bffffffffffffffffffffffffffffffffffffffffffffffffffffffff838183161783525050505060405161215f9190614b58565b6000604051808303816000865af19150503d806000811461219c576040519150601f19603f3d011682016040523d82523d6000602084013e6121a1565b606091505b50509050806121e5576040517f08c379a00000000000000000000000000000000000000000000000000000000081526004016121dc90614bbb565b60405180910390fd5b50505050565b6121f36124c8565b600073ffffffffffffffffffffffffffffffffffffffff168173ffffffffffffffffffffffffffffffffffffffff16036122655760006040517f1e4fbdf700000000000000000000000000000000000000000000000000000000815260040161225c9190613668565b60405180910390fd5b61226e81612769565b50565b6122796124c8565b600081116122bc576040517f08c379a00000000000000000000000000000000000000000000000000000000081526004016122b390614c4d565b60405180910390fd5b6000600b54905081600b819055507f2e1c9e000c6e8dda4d03536adb13b7cb6034ccff90d17f01de381e4d5097b52581836040516122fb929190613970565b60405180910390a15050565b60007f80ac58cd000000000000000000000000000000000000000000000000000000007bffffffffffffffffffffffffffffffffffffffffffffffffffffffff1916827bffffffffffffffffffffffffffffffffffffffffffffffffffffffff191614806123d257507f5b5e139f000000000000000000000000000000000000000000000000000000007bffffffffffffffffffffffffffffffffffffffffffffffffffffffff1916827bffffffffffffffffffffffffffffffffffffffffffffffffffffffff1916145b806123e257506123e182612d14565b5b9050919050565b6000806123f583612d7e565b9050600073ffffffffffffffffffffffffffffffffffffffff168173ffffffffffffffffffffffffffffffffffffffff160361246857826040517f7e27328900000000000000000000000000000000000000000000000000000000815260040161245f91906136fe565b60405180910390fd5b80915050919050565b60006004600083815260200190815260200160002060009054906101000a900473ffffffffffffffffffffffffffffffffffffffff169050919050565b600033905090565b6124c38383836001612dbb565b505050565b6124d06124ae565b73ffffffffffffffffffffffffffffffffffffffff166124ee610fc1565b73ffffffffffffffffffffffffffffffffffffffff161461254d576125116124ae565b6040517f118cdaa70000000000000000000000000000000000000000000000000000000081526004016125449190613668565b60405180910390fd5b565b60008061255b84612d7e565b9050600073ffffffffffffffffffffffffffffffffffffffff168373ffffffffffffffffffffffffffffffffffffffff161461259d5761259c818486612f80565b5b600073ffffffffffffffffffffffffffffffffffffffff168173ffffffffffffffffffffffffffffffffffffffff161461262e576125df600085600080612dbb565b6001600360008373ffffffffffffffffffffffffffffffffffffffff1673ffffffffffffffffffffffffffffffffffffffff168152602001908152602001600020600082825403925050819055505b600073ffffffffffffffffffffffffffffffffffffffff168573ffffffffffffffffffffffffffffffffffffffff16146126b1576001600360008773ffffffffffffffffffffffffffffffffffffffff1673ffffffffffffffffffffffffffffffffffffffff168152602001908152602001600020600082825401925050819055505b846002600086815260200190815260200160002060006101000a81548173ffffffffffffffffffffffffffffffffffffffff021916908373ffffffffffffffffffffffffffffffffffffffff160217905550838573ffffffffffffffffffffffffffffffffffffffff168273ffffffffffffffffffffffffffffffffffffffff167fddf252ad1be2c89b69c2b068fc378daa952ba7f163c4a11628f55a4df523b3ef60405160405180910390a4809150509392505050565b6000600760009054906101000a900473ffffffffffffffffffffffffffffffffffffffff16905081600760006101000a81548173ffffffffffffffffffffffffffffffffffffffff021916908373ffffffffffffffffffffffffffffffffffffffff1602179055508173ffffffffffffffffffffffffffffffffffffffff168173ffffffffffffffffffffffffffffffffffffffff167f8be0079c531659141344cd1fd0a4f28419497f9722a3daafe3b4186f6b6457e060405160405180910390a35050565b600073ffffffffffffffffffffffffffffffffffffffff168273ffffffffffffffffffffffffffffffffffffffff16036128a057816040517f5b08ba180000000000000000000000000000000000000000000000000000000081526004016128979190613668565b60405180910390fd5b80600560008573ffffffffffffffffffffffffffffffffffffffff1673ffffffffffffffffffffffffffffffffffffffff16815260200190815260200160002060008473ffffffffffffffffffffffffffffffffffffffff1673ffffffffffffffffffffffffffffffffffffffff16815260200190815260200160002060006101000a81548160ff0219169083151502179055508173ffffffffffffffffffffffffffffffffffffffff168373ffffffffffffffffffffffffffffffffffffffff167f17307eab39ab6107e8899845ad3d59bd9653f200f220920489ca2b5937696c318360405161299191906134f7565b60405180910390a3505050565b60008373ffffffffffffffffffffffffffffffffffffffff163b1115612b48578273ffffffffffffffffffffffffffffffffffffffff1663150b7a02868685856040518563ffffffff1660e01b81526004016129fd9493929190614cb7565b6020604051808303816000875af1925050508015612a3957506040513d601f19601f82011682018060405250810190612a369190614d18565b60015b612abd573d8060008114612a69576040519150601f19603f3d011682016040523d82523d6000602084013e612a6e565b606091505b506000815103612ab557836040517f64a0ae92000000000000000000000000000000000000000000000000000000008152600401612aac9190613668565b60405180910390fd5b805160208201fd5b63150b7a0260e01b7bffffffffffffffffffffffffffffffffffffffffffffffffffffffff1916817bffffffffffffffffffffffffffffffffffffffffffffffffffffffff191614612b4657836040517f64a0ae92000000000000000000000000000000000000000000000000000000008152600401612b3d9190613668565b60405180910390fd5b505b5050505050565b6060600a8054612b5e90613da6565b80601f0160208091040260200160405190810160405280929190818152602001828054612b8a90613da6565b8015612bd75780601f10612bac57610100808354040283529160200191612bd7565b820191906000526020600020905b815481529060010190602001808311612bba57829003601f168201915b5050505050905090565b6060612bec826123e9565b506000612bf7612b4f565b90506000815111612c175760405180602001604052806000815250612c42565b80612c2184613044565b604051602001612c329291906143a4565b6040516020818303038152906040525b915050919050565b600260085403612c86576040517f3ee5aeb500000000000000000000000000000000000000000000000000000000815260040160405180910390fd5b6002600881905550565b612caa828260405180602001604052806000815250613112565b5050565b80600660008481526020019081526020016000209081612cce919061416a565b507ff8e1a15aba9398e019f0b49df1a4fde98ee17ae345cb5f6b5e2c27f5033e8ce782604051612cfe91906136fe565b60405180910390a15050565b6001600881905550565b60007f01ffc9a7000000000000000000000000000000000000000000000000000000007bffffffffffffffffffffffffffffffffffffffffffffffffffffffff1916827bffffffffffffffffffffffffffffffffffffffffffffffffffffffff1916149050919050565b60006002600083815260200190815260200160002060009054906101000a900473ffffffffffffffffffffffffffffffffffffffff169050919050565b8080612df45750600073ffffffffffffffffffffffffffffffffffffffff168273ffffffffffffffffffffffffffffffffffffffff1614155b15612f28576000612e04846123e9565b9050600073ffffffffffffffffffffffffffffffffffffffff168373ffffffffffffffffffffffffffffffffffffffff1614158015612e6f57508273ffffffffffffffffffffffffffffffffffffffff168173ffffffffffffffffffffffffffffffffffffffff1614155b8015612e825750612e808184611da0565b155b15612ec457826040517fa9fbf51f000000000000000000000000000000000000000000000000000000008152600401612ebb9190613668565b60405180910390fd5b8115612f2657838573ffffffffffffffffffffffffffffffffffffffff168273ffffffffffffffffffffffffffffffffffffffff167f8c5be1e5ebec7d5bd14f71427d1e84f3dd0314c0f7b2291e5b200ac8c7c3b92560405160405180910390a45b505b836004600085815260200190815260200160002060006101000a81548173ffffffffffffffffffffffffffffffffffffffff021916908373ffffffffffffffffffffffffffffffffffffffff16021790555050505050565b612f8b838383613136565b61303f57600073ffffffffffffffffffffffffffffffffffffffff168373ffffffffffffffffffffffffffffffffffffffff160361300057806040517f7e273289000000000000000000000000000000000000000000000000000000008152600401612ff791906136fe565b60405180910390fd5b81816040517f177e802f000000000000000000000000000000000000000000000000000000008152600401613036929190614af3565b60405180910390fd5b505050565b606060006001613053846131f7565b01905060008167ffffffffffffffff811115613072576130716137cf565b5b6040519080825280601f01601f1916602001820160405280156130a45781602001600182028036833780820191505090505b509050600082602083010190505b600115613107578080600190039150507f3031323334353637383961626364656600000000000000000000000000000000600a86061a8153600a85816130fb576130fa614d45565b5b049450600085036130b2575b819350505050919050565b61311c838361334a565b6131316131276124ae565b600085858561299e565b505050565b60008073ffffffffffffffffffffffffffffffffffffffff168373ffffffffffffffffffffffffffffffffffffffff16141580156131ee57508273ffffffffffffffffffffffffffffffffffffffff168473ffffffffffffffffffffffffffffffffffffffff1614806131af57506131ae8484611da0565b5b806131ed57508273ffffffffffffffffffffffffffffffffffffffff166131d583612471565b73ffffffffffffffffffffffffffffffffffffffff16145b5b90509392505050565b600080600090507a184f03e93ff9f4daa797ed6e38ed64bf6a1f0100000000000000008310613255577a184f03e93ff9f4daa797ed6e38ed64bf6a1f010000000000000000838161324b5761324a614d45565b5b0492506040810190505b6d04ee2d6d415b85acef81000000008310613292576d04ee2d6d415b85acef8100000000838161328857613287614d45565b5b0492506020810190505b662386f26fc1000083106132c157662386f26fc1000083816132b7576132b6614d45565b5b0492506010810190505b6305f5e10083106132ea576305f5e10083816132e0576132df614d45565b5b0492506008810190505b612710831061330f57612710838161330557613304614d45565b5b0492506004810190505b60648310613332576064838161332857613327614d45565b5b0492506002810190505b600a8310613341576001810190505b80915050919050565b600073ffffffffffffffffffffffffffffffffffffffff168273ffffffffffffffffffffffffffffffffffffffff16036133bc5760006040517f64a0ae920000000000000000000000000000000000000000000000000000000081526004016133b39190613668565b60405180910390fd5b60006133ca8383600061254f565b9050600073ffffffffffffffffffffffffffffffffffffffff168173ffffffffffffffffffffffffffffffffffffffff161461343e5760006040517f73c6ac6e0000000000000000000000000000000000000000000000000000000081526004016134359190613668565b60405180910390fd5b505050565b6000604051905090565b600080fd5b600080fd5b60007fffffffff0000000000000000000000000000000000000000000000000000000082169050919050565b61348c81613457565b811461349757600080fd5b50565b6000813590506134a981613483565b92915050565b6000602082840312156134c5576134c461344d565b5b60006134d38482850161349a565b91505092915050565b60008115159050919050565b6134f1816134dc565b82525050565b600060208201905061350c60008301846134e8565b92915050565b600081519050919050565b600082825260208201905092915050565b60005b8381101561354c578082015181840152602081019050613531565b60008484015250505050565b6000601f19601f8301169050919050565b600061357482613512565b61357e818561351d565b935061358e81856020860161352e565b61359781613558565b840191505092915050565b600060208201905081810360008301526135bc8184613569565b905092915050565b6000819050919050565b6135d7816135c4565b81146135e257600080fd5b50565b6000813590506135f4816135ce565b92915050565b6000602082840312156136105761360f61344d565b5b600061361e848285016135e5565b91505092915050565b600073ffffffffffffffffffffffffffffffffffffffff82169050919050565b600061365282613627565b9050919050565b61366281613647565b82525050565b600060208201905061367d6000830184613659565b92915050565b61368c81613647565b811461369757600080fd5b50565b6000813590506136a981613683565b92915050565b600080604083850312156136c6576136c561344d565b5b60006136d48582860161369a565b92505060206136e5858286016135e5565b9150509250929050565b6136f8816135c4565b82525050565b600060208201905061371360008301846136ef565b92915050565b613722816134dc565b811461372d57600080fd5b50565b60008135905061373f81613719565b92915050565b60006020828403121561375b5761375a61344d565b5b600061376984828501613730565b91505092915050565b60008060006060848603121561378b5761378a61344d565b5b60006137998682870161369a565b93505060206137aa8682870161369a565b92505060406137bb868287016135e5565b9150509250925092565b600080fd5b600080fd5b7f4e487b7100000000000000000000000000000000000000000000000000000000600052604160045260246000fd5b61380782613558565b810181811067ffffffffffffffff82111715613826576138256137cf565b5b80604052505050565b6000613839613443565b905061384582826137fe565b919050565b600067ffffffffffffffff821115613865576138646137cf565b5b61386e82613558565b9050602081019050919050565b82818337600083830152505050565b600061389d6138988461384a565b61382f565b9050828152602081018484840111156138b9576138b86137ca565b5b6138c484828561387b565b509392505050565b600082601f8301126138e1576138e06137c5565b5b81356138f184826020860161388a565b91505092915050565b6000602082840312156139105761390f61344d565b5b600082013567ffffffffffffffff81111561392e5761392d613452565b5b61393a848285016138cc565b91505092915050565b6000602082840312156139595761395861344d565b5b60006139678482850161369a565b91505092915050565b600060408201905061398560008301856136ef565b61399260208301846136ef565b9392505050565b600060a0820190506139ae60008301886136ef565b6139bb60208301876134e8565b6139c860408301866136ef565b6139d560608301856136ef565b6139e260808301846136ef565b9695505050505050565b60008060408385031215613a0357613a0261344d565b5b6000613a118582860161369a565b9250506020613a2285828601613730565b9150509250929050565b600067ffffffffffffffff821115613a4757613a466137cf565b5b613a5082613558565b9050602081019050919050565b6000613a70613a6b84613a2c565b61382f565b905082815260208101848484011115613a8c57613a8b6137ca565b5b613a9784828561387b565b509392505050565b600082601f830112613ab457613ab36137c5565b5b8135613ac4848260208601613a5d565b91505092915050565b60008060008060808587031215613ae757613ae661344d565b5b6000613af58782880161369a565b9450506020613b068782880161369a565b9350506040613b17878288016135e5565b925050606085013567ffffffffffffffff811115613b3857613b37613452565b5b613b4487828801613a9f565b91505092959194509250565b600067ffffffffffffffff821115613b6b57613b6a6137cf565b5b602082029050602081019050919050565b600080fd5b6000613b94613b8f84613b50565b61382f565b90508083825260208201905060208402830185811115613bb757613bb6613b7c565b5b835b81811015613bfe57803567ffffffffffffffff811115613bdc57613bdb6137c5565b5b808601613be989826138cc565b85526020850194505050602081019050613bb9565b5050509392505050565b600082601f830112613c1d57613c1c6137c5565b5b8135613c2d848260208601613b81565b91505092915050565b60008060408385031215613c4d57613c4c61344d565b5b6000613c5b8582860161369a565b925050602083013567ffffffffffffffff811115613c7c57613c7b613452565b5b613c8885828601613c08565b9150509250929050565b600060208284031215613ca857613ca761344d565b5b600082013567ffffffffffffffff811115613cc657613cc5613452565b5b613cd284828501613c08565b91505092915050565b60008060408385031215613cf257613cf161344d565b5b6000613d008582860161369a565b9250506020613d118582860161369a565b9150509250929050565b60008060408385031215613d3257613d3161344d565b5b6000613d408582860161369a565b925050602083013567ffffffffffffffff811115613d6157613d60613452565b5b613d6d858286016138cc565b9150509250929050565b7f4e487b7100000000000000000000000000000000000000000000000000000000600052602260045260246000fd5b60006002820490506001821680613dbe57607f821691505b602082108103613dd157613dd0613d77565b5b50919050565b6000606082019050613dec6000830186613659565b613df960208301856136ef565b613e066040830184613659565b949350505050565b7f4e6f2066756e647320746f207769746864726177000000000000000000000000600082015250565b6000613e4460148361351d565b9150613e4f82613e0e565b602082019050919050565b60006020820190508181036000830152613e7381613e37565b9050919050565b600081905092915050565b50565b6000613e95600083613e7a565b9150613ea082613e85565b600082019050919050565b6000613eb682613e88565b9150819050919050565b7f5769746864726177616c206661696c6564000000000000000000000000000000600082015250565b6000613ef660118361351d565b9150613f0182613ec0565b602082019050919050565b60006020820190508181036000830152613f2581613ee9565b9050919050565b7f4d617820737570706c792063616e6e6f74206265206c657373207468616e206360008201527f757272656e7420737570706c7900000000000000000000000000000000000000602082015250565b6000613f88602d8361351d565b9150613f9382613f2c565b604082019050919050565b60006020820190508181036000830152613fb781613f7b565b9050919050565b60008190508160005260206000209050919050565b60006020601f8301049050919050565b600082821b905092915050565b6000600883026140207fffffffffffffffffffffffffffffffffffffffffffffffffffffffffffffffff82613fe3565b61402a8683613fe3565b95508019841693508086168417925050509392505050565b6000819050919050565b600061406761406261405d846135c4565b614042565b6135c4565b9050919050565b6000819050919050565b6140818361404c565b61409561408d8261406e565b848454613ff0565b825550505050565b600090565b6140aa61409d565b6140b5818484614078565b505050565b5b818110156140d9576140ce6000826140a2565b6001810190506140bb565b5050565b601f82111561411e576140ef81613fbe565b6140f884613fd3565b81016020851015614107578190505b61411b61411385613fd3565b8301826140ba565b50505b505050565b600082821c905092915050565b600061414160001984600802614123565b1980831691505092915050565b600061415a8383614130565b9150826002028217905092915050565b61417382613512565b67ffffffffffffffff81111561418c5761418b6137cf565b5b6141968254613da6565b6141a18282856140dd565b600060209050601f8311600181146141d457600084156141c2578287015190505b6141cc858261414e565b865550614234565b601f1984166141e286613fbe565b60005b8281101561420a578489015182556001820191506020850194506020810190506141e5565b868310156142275784890151614223601f891682614130565b8355505b6001600288020188555050505b505050505050565b600060408201905081810360008301526142568185613569565b9050818103602083015261426a8184613569565b90509392505050565b7f4e487b7100000000000000000000000000000000000000000000000000000000600052601160045260246000fd5b60006142ad826135c4565b91506142b8836135c4565b92508282039050818111156142d0576142cf614273565b5b92915050565b7f4d617820746f6b656e73207065722077616c6c6574206d75737420626520677260008201527f6561746572207468616e20300000000000000000000000000000000000000000602082015250565b6000614332602c8361351d565b915061433d826142d6565b604082019050919050565b6000602082019050818103600083015261436181614325565b9050919050565b600081905092915050565b600061437e82613512565b6143888185614368565b935061439881856020860161352e565b80840191505092915050565b60006143b08285614373565b91506143bc8284614373565b91508190509392505050565b60006143d3826135c4565b91506143de836135c4565b92508282019050808211156143f6576143f5614273565b5b92915050565b7f5075626c6963206d696e74696e672069732064697361626c6564000000000000600082015250565b6000614432601a8361351d565b915061443d826143fc565b602082019050919050565b6000602082019050818103600083015261446181614425565b9050919050565b7f496e73756666696369656e74207061796d656e74000000000000000000000000600082015250565b600061449e60148361351d565b91506144a982614468565b602082019050919050565b600060208201905081810360008301526144cd81614491565b9050919050565b7f546f6b656e205552492063616e6e6f7420626520656d70747900000000000000600082015250565b600061450a60198361351d565b9150614515826144d4565b602082019050919050565b60006020820190508181036000830152614539816144fd565b9050919050565b7f4d6178696d756d20737570706c79207265616368656400000000000000000000600082015250565b600061457660168361351d565b915061458182614540565b602082019050919050565b600060208201905081810360008301526145a581614569565b9050919050565b7f4d617820746f6b656e73207065722077616c6c65742065786365656465640000600082015250565b60006145e2601e8361351d565b91506145ed826145ac565b602082019050919050565b60006020820190508181036000830152614611816145d5565b9050919050565b6000614623826135c4565b91507fffffffffffffffffffffffffffffffffffffffffffffffffffffffffffffffff820361465557614654614273565b5b600182019050919050565b6000604082019050818103600083015261467a8185613569565b905061468960208301846136ef565b9392505050565b7f496e76616c696420726563697069656e74206164647265737300000000000000600082015250565b60006146c660198361351d565b91506146d182614690565b602082019050919050565b600060208201905081810360008301526146f5816146b9565b9050919050565b7f4e6f2045544820746f207265636f766572000000000000000000000000000000600082015250565b600061473260118361351d565b915061473d826146fc565b602082019050919050565b6000602082019050818103600083015261476181614725565b9050919050565b7f455448207472616e73666572206661696c656400000000000000000000000000600082015250565b600061479e60138361351d565b91506147a982614768565b602082019050919050565b600060208201905081810360008301526147cd81614791565b9050919050565b7f546f6b656e20555249732061727261792063616e6e6f7420626520656d707479600082015250565b600061480a60208361351d565b9150614815826147d4565b602082019050919050565b60006020820190508181036000830152614839816147fd565b9050919050565b7f4d6178696d756d2031303020746f6b656e732070657220626174636800000000600082015250565b6000614876601c8361351d565b915061488182614840565b602082019050919050565b600060208201905081810360008301526148a581614869565b9050919050565b7f4d6178696d756d20737570706c7920776f756c64206265206578636565646564600082015250565b60006148e260208361351d565b91506148ed826148ac565b602082019050919050565b60006020820190508181036000830152614911816148d5565b9050919050565b7f4e487b7100000000000000000000000000000000000000000000000000000000600052603260045260246000fd5b7f4d6178696d756d203520746f6b656e7320706572206261746368000000000000600082015250565b600061497d601a8361351d565b915061498882614947565b602082019050919050565b600060208201905081810360008301526149ac81614970565b9050919050565b60006149be826135c4565b91506149c9836135c4565b92508282026149d7816135c4565b915082820484148315176149ee576149ed614273565b5b5092915050565b7f4d617820746f6b656e73207065722077616c6c657420776f756c64206265206560008201527f7863656564656400000000000000000000000000000000000000000000000000602082015250565b6000614a5160278361351d565b9150614a5c826149f5565b604082019050919050565b60006020820190508181036000830152614a8081614a44565b9050919050565b7f496e76616c696420746f6b656e20616464726573730000000000000000000000600082015250565b6000614abd60158361351d565b9150614ac882614a87565b602082019050919050565b60006020820190508181036000830152614aec81614ab0565b9050919050565b6000604082019050614b086000830185613659565b614b1560208301846136ef565b9392505050565b600081519050919050565b6000614b3282614b1c565b614b3c8185613e7a565b9350614b4c81856020860161352e565b80840191505092915050565b6000614b648284614b27565b915081905092915050565b7f4552433230207472616e73666572206661696c65640000000000000000000000600082015250565b6000614ba560158361351d565b9150614bb082614b6f565b602082019050919050565b60006020820190508181036000830152614bd481614b98565b9050919050565b7f4d696e74207072696365206d7573742062652067726561746572207468616e2060008201527f3000000000000000000000000000000000000000000000000000000000000000602082015250565b6000614c3760218361351d565b9150614c4282614bdb565b604082019050919050565b60006020820190508181036000830152614c6681614c2a565b9050919050565b600082825260208201905092915050565b6000614c8982614b1c565b614c938185614c6d565b9350614ca381856020860161352e565b614cac81613558565b840191505092915050565b6000608082019050614ccc6000830187613659565b614cd96020830186613659565b614ce660408301856136ef565b8181036060830152614cf88184614c7e565b905095945050505050565b600081519050614d1281613483565b92915050565b600060208284031215614d2e57614d2d61344d565b5b6000614d3c84828501614d03565b91505092915050565b7f4e487b7100000000000000000000000000000000000000000000000000000000600052601260045260246000fdfea2646970667358221220b1011ed4facd03d87ea7fcb64d57d28c6ca94a9b96c2c92688344f6a529825ed64736f6c634300081c0033",
  "linkReferences": {},
  "deployedLinkReferences": {}
}